:100000000C9434000C9451000C9451000C94510049
:100010000C9451000C9451000C9451000C9451001C
:100020000C9451000C9451000C9451000C94480114
:100030000C9451000C9451000C94DB000C94510072
:100040000C9451000C9451000C9466000C945100D7
:100050000C9451000C9451000C9451000C945100DC
:100060000C9451000C94510011241FBECFEFD8E026
:10007000DEBFCDBF11E0A0E0B1E0EEE1F8E002C0EC
:1000800005900D92A83FB107D9F723E0A8EFB1E0A2
:1000900001C01D92A638B207E1F70E94C0030C947C
:1000A0000D040C9400009093C5008093C40088E96F
:1000B0008093C1008EE08093C2000895E0ECF0E0F0
:1000C000908195FFFDCF8093C60008951F920F92F7
:1000D0000FB60F9211242F933F934F935F936F931B
:1000E0007F938F939F93AF93BF93EF93FF938091F1
:1000F000C60080933B02E091080291E09E0F90932E
:100100000802F0E0E75FFD4F80830E945E0080916F
:100110000802833091F4ECE3F2E0A9E0B2E08D91C3
:100120009C9111979183808312968C918283138284
:100130001092080281E08093F801FF91EF91BF9146
:10014000AF919F918F917F916F915F914F913F916F
:100150002F910F900FBE0F901F9018959B01220FAB
:10016000331F620F731F579A2BB12F773BB1306843
:100170004FB7F89461157105B1F0FC01680F791F54
:10018000919188E03BB9000000C097FF2BB9990F0F
:10019000000000C000C000C02BB900C08A9591F7D4
:1001A000E617F70769F74FBF8FEA94E00197F1F779
:1001B00000C0000008951F920F920FB60F921124F5
:1001C0002F938F939F938091FC018F5F8093FC010D
:1001D0002091FC018DEC289F812D112482958F7038
:1001E000880F880F982F990F990F890F281304C033
:1001F00095B180E2892785B98091FC01843639F474
:100200008091FB018F5F8093FB011092FC01809134
:10021000FB018C3339F48091FA018F5F8093FA01EE
:100220001092FB01809101028130E9F48091FF017D
:10023000813059F48091FA018E31A9F410920102B3
:10024000109200021092FF010EC08091FF018230D7
:1002500051F48091FA018C3331F410920102109222
:1002600000021092FF0180910102811109C080916A
:100270000002811105C08091FF01811101C02D98FC
:100280009F918F912F910F900FBE0F901F901895F7
:100290001F920F920FB60F9211248F934A9914C098
:1002A00080910702811106C081E0809307021092BD
:1002B000040224C0809104028C3300F58091040272
:1002C0008F5F809304021AC010920702809104028B
:1002D000882391F080910102811108C081E0809310
:1002E0000102809300028093F60106C01092010281
:1002F000109200021092FF01109204024B993EC02E
:1003000080910602811108C081E08093060210925C
:1003100003021092FD0162C0809103028F5F8093FF
:10032000030280910302833108F458C080910002D7
:10033000813029F080910002823009F04FC0809115
:10034000FE0181110EC08091F6018F5F8093F6014E
:100350008091F6018C3308F441C08CE38093F60160
:100360003DC08091F60181508093F6018091F601A5
:100370008230A0F581E08093F60130C01092060231
:1003800080910302882331F180910302833198F038
:1003900080910002813021F0809100028230D1F4FE
:1003A0008091FE01811104C081E08093FE0112C0A2
:1003B0001092FE010FC080910102813059F48091AA
:1003C00000028F5F8093000280910002833010F062
:1003D00010920002109203021092FD014C9914C079
:1003E00080910502811106C081E080930502109280
:1003F000020237C0809102028C3398F5809102028C
:100400008F5F809302022DC010920502809102023C
:10041000882329F180910102813009F51092FC01B5
:100420001092FB011092FA018091FF018F5F80937F
:10043000FF018091FF01833010F01092FF01809145
:10044000FF01811103C04298439809C08091FF01C8
:10045000813019F4429A439802C04298439A10920C
:1004600002028F910F900FBE0F901F901895AF92C0
:10047000BF92CF92DF92EF92FF920F931F93CF9391
:10048000DF93823009F039C18091F90181119CC05C
:1004900081E08093F9010F2EF4EACF2EF1E0DF2EF8
:1004A000F02D0F2EF4EFEF2EF1E0FF2EF02D560180
:1004B000C1EBD2E006E813E080C091838083128212
:1004C0003396CE17DF07C9F7F70120813181E6E9BE
:1004D000F2E0248F338F158E3396CE17DF07C9F7DE
:1004E000D7969C93D797D6968C93D697D8961C92EE
:1004F000D8971396CA17DB0799F7A7EEB2E0E2E0A8
:10050000F3E011962C9311973C9312961C9212973C
:100510001396EA17FB07A9F7AAE1B3E0918380835A
:1005200012823396EA17FB07C9F7E5E3F3E0119669
:100530002C9311973C9312961C9212971396EA17DC
:10054000FB07A9F7A0E5B3E091838083128233967D
:10055000AE17BF07C9F7EBE6F3E011962C9311979E
:100560003C9312961C9212971396EA17FB07A9F771
:1005700091838083128233960E171F07C9F760E5B7
:1005800070E086E992E00E94AE00FFEF2AE683E089
:10059000F15020408040E1F700C00000809100024F
:1005A000823009F0AAC092E0A90EB11CE2E0EE1A76
:1005B000F108CE14DF0409F4A0C0F5019081818117
:1005C000A6E9B2E0FD0179CF1092F9010F2EF4EF08
:1005D000CF2EF1E0DF2EF02D0F2EF4EAEF2EF1E01A
:1005E000FF2EF02D5601C1EBD2E006E813E07EC0ED
:1005F0009183808312823396EC17FD07C9F7F701C8
:1006000020813181E6E9F2E0248F338F158E339615
:10061000EC17FD07C9F7D7969C93D797D6968C937E
:10062000D697D8961C92D8971396AC17BD0799F712
:10063000A7EEB2E0E2E0F3E011962C9311973C9321
:1006400012961C9212971396AE17BF07A9F7AAE14C
:10065000B3E09183808312823396EA17FB07C9F7D0
:10066000E5E3F3E011962C9311973C9312961C92BC
:1006700012971396AE17BF07A9F7A0E5B3E09183D1
:10068000808312823396EA17FB07C9F7EBE6F3E0A3
:1006900011962C9311973C9312961C9212971396D5
:1006A000EA17FB07A9F791838083128233960E170E
:1006B0001F07C9F760E570E086E992E00E94AE008E
:1006C000FFEF2AE683E0F15020408040E1F700C0D0
:1006D000000080910002823081F492E0A91AB108F2
:1006E000E2E0EE0EF11CCE14DF0439F0F50190814A
:1006F0008181A6E9B2E0FD017BCFDF91CF911F910F
:100700000F91FF90EF90DF90CF90BF90AF90089542
:10071000A6E9B2E026E833E0E091F601F0E0EE0F62
:10072000FF1FE050FF4F808111968C931197E0914D
:10073000F601F0E0EE0FFF1FE050FF4F81818C9338
:1007400012961C9212971396A217B30729F760E529
:1007500070E086E992E00E94AE000895E6E9F2E0DA
:1007600086E893E01182108212823396E817F90727
:10077000C9F760E570E086E992E00E94AE00089556
:1007800081E284B98CE187B982E084BD95E095BDB2
:1007900080936E009CE997BD109280009BE090933F
:1007A000810080936F0084ED90E3909389008093A3
:1007B000880087E690E00E9453000E94AE032FEF6E
:1007C00089E698E1215080409040E1F700C00000A8
:1007D000789480910102813039F480910002813057
:1007E00019F40E948803F5CF80910102813039F419
:1007F00080910002823019F40E943702EACF809182
:100800000102882321F0809100028111E2CF0E9431
:0E081000AE032D9842984398DCCFF894FFCFAA
:10081E00F096DD8BCC7FBB75AC6C9F63925B865480
:10082E007C4D72476942603C593852334B2F452BF1
:10083E0040283B253622321F2E1D2A1B271824172F
:10084E0021151E131C121A10180F160E140D130C50
:10085E00110B100A0F090D090C080B070B070A06DE
:10086E000906090609060906090609060906090602
:10087E0009060906090609060906090609060906F2
:10088E0009060906090609060906090609060906E2
:10089E0009060906090609060906090609060906D2
:1008AE0009060906090609060906090609060906C2
:1008BE0009060000F096DD8BCC7FBB75AC6C9F6398
:1008CE00925B86547C4D72476942603C5938523374
:1008DE004B2F452B40283B253622321F2E1D2A1B1F
:1008EE002718241721151E131C121A10180F160E76
:1008FE00140D130C110B100A0F090D090C080B0720
:08090E000B070A0609060100AF
:00000001FF
