S00F0000777332383132622E73726563FC
S113000012C02CC02BC02AC029C028C027C026C0BB
S113001025C024C023C022C021C020C01FC01EC0D0
S11300201DC01CC01BC011241FBECFE5D4E0DEBF21
S1130030CDBF12E0A0E6B0E0EAE0F1E002C0059036
S11300400D92A433B107D9F722E0A4E3B2E001C0D2
S11300501D92A238B207E1F718D055C0D1CF98E06D
S113006088235CF4C39A0000000000000000000034
S1130070000000000000C39804C0C39A0000000000
S1130080C398880F915061F7089588E087BB0F2EBD
S1130090FAE4CF2EF1E0DF2EF02D02E812E00F2E6D
S11300A0F0E6EF2EF0E0FF2EF02D28C08C91808337
S11300B011968C911197818312968C911297828359
S11300C013963396E017F10789F78981C8DF888191
S11300D0C6DF8A81C4DF2396C017D107B1F72FEF9B
S11300E080E792E0215080409040E1F700C000009A
S11300F023E0E20EF11CCE14DF0489F2C4E3D2E063
S10D0100FE01D701D3CFF894FFCF1E
S113010AFF0000F5000AEB0014E0001FD60029CC1A
S113011A0033C2003DB80047AD0052A3005C990009
S113012A668F007085007A7A008570008F66009960
S113013A5C00A35200AD4700B83D00C23300CC298D
S113014A00D61F00E01400EB0A00F50000FF0000CF
S113015AFF000AF50014EB001FE00029D60033CC97
S113016A003DC20047B80052AD005CA30066990086
S113017A708F007A8500857A008F7000996600A3D3
S113018A5C00AD5200B84700C23D00CC3300D6290A
S113019A00E01F00EB1400F50A00FF0000FF000A4C
S11301AAF50014EB001FE00029D60033CC003DC251
S11301BA0047B80052AD005CA300669900708F0036
S11301CA7A8500857A008F7000996600A35C00AD79
S11301DA5200B84700C23D00CC3300D62900E01FC4
S11301EA00EB1400F50A00FF0000FF0000F5000A06
S11301FAEB0014E0001FD60029CC0033C2003DB83E
S113020A0047AD0052A3005C9900668F0070850018
S113021A7A7A008570008F6600995C00A35200AD5B
S113022A4700B83D00C23300CC2900D61F00E014B1
S113023A00EB0A00F50000FF0000FF000AF50014B5
S113024AEB001FE00029D60033CC003DC20047B8BA
S113025A0052AD005CA300669900708F007A850095
S113026A857A008F7000996600A35C00AD5200B8CD
S113027A4700C23D00CC3300D62900E01F00EB142E
S113028A00F50A00FF0000FF000AF50014EB001F46
S113029AE00029D60033CC003DC20047B80052AD75
S11302AA005CA300669900708F007A8500857A0045
S11302BA8F7000996600A35C00AD5200B84700C273
S11302CA3D00CC3300D62900E01F00EB1400F50AE8
S10702DA00FF00001D
S9030000FC
