:100000000C9434000C9451000C9451000C94510049
:100010000C9451000C9451000C9451000C9451001C
:100020000C9451000C9451000C9451000C94C70195
:100030000C9451000C9451000C9414010C94510038
:100040000C9451000C9451000C949F000C9451009E
:100050000C9451000C9451000C9451000C945100DC
:100060000C9451000C94510011241FBECFEFD8E026
:10007000DEBFCDBF15E0A0E0B1E0E0E3FFE002C0ED
:1000800005900D92AE3EB107D9F727E0AEEEB5E090
:1000900001C01D92A53DB207E1F70E9429040C940E
:1000A00096070C9400009093C5008093C40088E9E3
:1000B0008093C1008EE08093C2000895E0ECF0E0F0
:1000C000908195FFFDCF8093C60008958A3010F48B
:1000D000805D0895895C0895CF93DF93C82F829542
:1000E0008F700E946600D82F8C2F8F700E94660040
:1000F000C82F8D2F0E945E008C2F0E945E00DF9122
:10010000CF910895CF93DF93EC016A3051F4888149
:10011000882391F021960E945E0089918111FBCF86
:100120000BC06B3049F48881882331F021960E94FE
:100130006C0089918111FBCFDF91CF9108951F92BF
:100140000F920FB60F9211242F933F934F935F930B
:100150006F937F938F939F93AF93BF93EF93FF938F
:100160008091C60080933006E091FD0591E09E0FDE
:100170009093FD05F0E0E250FA4F80830E945E000C
:100180008091FD05833091F4E1E3F6E0AEEFB5E058
:100190008D919C9111979183808312968C9182838B
:1001A00013821092FD0581E08093EE05FF91EF919F
:1001B000BF91AF919F918F917F916F915F914F917F
:1001C0003F912F910F900FBE0F901F9018959B019C
:1001D000220F331F620F731F579A2BB12F773BB13A
:1001E00030684FB7F89461157105B1F0FC01680FE4
:1001F000791F919188E03BB9000000C097FF2BB9AF
:10020000990F000000C000C000C02BB900C08A9543
:1002100091F7E617F70769F74FBF8FEA94E0019768
:10022000F1F700C0000008951F920F920FB60F92D1
:1002300011242F933F934F935F936F937F938F93EB
:100240009F93AF93BF93EF93FF938091F1058F5FDF
:100250008093F1052091F1058DEC289F812D1124CB
:1002600082958F70880F880F982F990F990F890F9B
:10027000281304C095B180E2892785B98091F105E2
:10028000843639F48091F0058F5F8093F0051092E9
:10029000F1058091F0058C3339F48091EF058F5F83
:1002A0008093EF051092F0058091F605813009F0FA
:1002B00050C08091F405813029F58091EF0585309B
:1002C00009F047C08091EF051F928F9381E794E07A
:1002D0009F938F9383E696E09F938F930E94AC0445
:1002E0006AE083E696E00E9482001092F605109282
:1002F000F5051092F4050F900F900F900F900F904E
:100300000F9027C08091F405823019F58091EF0598
:100310008A30F9F48091EF051F928F9381E794E082
:100320009F938F9383E696E09F938F930E94AC04F4
:100330006AE083E696E00E9482001092F605109231
:10034000F5051092F4050F900F900F900F900F90FD
:100350000F908091F605811109C08091F5058111FA
:1003600005C08091F405811101C02D98FF91EF9196
:10037000BF91AF919F918F917F916F915F914F91BD
:100380003F912F910F900FBE0F901F9018951F92C5
:100390000F920FB60F9211242F933F934F935F93B9
:1003A0006F937F938F939F93AF93BF93EF93FF933D
:1003B0004A9915C08091FC05811106C081E08093A7
:1003C000FC051092F90554C08091F9058C3308F0B2
:1003D0004FC08091F9058F5F8093F90549C0109255
:1003E000FC058091F905882309F440C08091F90546
:1003F000843198F08091F6058130C1F588E2E3EB15
:10040000F5E0A3E6B6E001900D928A95E1F76AE087
:1004100083E696E00E94820029C08091F605811152
:1004200011C081E08093F6058093F50580937004F8
:100430008BE1E3E9F4E0A3E6B6E001900D928A9542
:10044000E1F70FC01092F6051092F5051092F40531
:100450008BE1EEEAF4E0A3E6B6E001900D928A9516
:10046000E1F76AE083E696E00E9482001092F905C7
:100470004B9948C08091FB05811108C081E08093B1
:10048000FB051092F8051092F205EDC08091F80579
:100490008F5F8093F8058091F805863008F4E3C0FB
:1004A0008091F505813029F08091F505823009F0C1
:1004B000DAC08091F305811113C080917004882304
:1004C00009F4D1C0809170048F5F80937004809193
:1004D0007004843608F4C7C084E680937004C3C0F7
:1004E00080917004843608F0BEC080917004815001
:1004F00080937004809170048111B5C081E0809375
:100500007004B1C01092FB058091F805882309F4AE
:10051000A6C08091F8058B3008F446C08091F5059F
:10052000813021F08091F505823039F49091F30506
:1005300081E0911180E08093F3058091F505813091
:10054000A9F4809170041F928F9389EC94E09F939B
:100550008F9383E696E09F938F930E94AC040F9055
:100560000F900F900F900F900F9018C08091F5058D
:100570008230A1F4809170041F928F9382EF94E0F7
:100580009F938F9383E696E09F938F930E94AC0492
:100590000F900F900F900F900F900F906AE083E6EE
:1005A00096E00E9482005BC08091F605813009F0E0
:1005B00056C08091F5058F5F8093F5058091F50514
:1005C000833010F01092F5058091F505811115C06A
:1005D000809170041F928F938BE195E09F938F938E
:1005E00083E696E09F938F930E94AC040F900F9048
:1005F0000F900F900F900F902DC08091F5058130D6
:10060000A9F4809170041F928F9389EC94E09F93DA
:100610008F9383E696E09F938F930E94AC040F9094
:100620000F900F900F900F900F9014C08091700456
:100630001F928F9382EF94E09F938F9383E696E0CF
:100640009F938F930E94AC040F900F900F900F9088
:100650000F900F906AE083E696E00E94820010926D
:10066000F8051092F2054C9915C08091FA05811198
:1006700006C081E08093FA051092F7055AC0809178
:10068000F7058C3308F055C08091F7058F5F809394
:10069000F7054FC01092FA058091F705882309F4F9
:1006A00046C08091F605813009F041C01092F105F5
:1006B0001092F0051092EF058091F4058F5F809302
:1006C000F4058091F405833010F01092F4058091C8
:1006D000F40581110CC04298439885E2E4E4F5E00A
:1006E000A3E6B6E001900D928A95E1F71BC08091D8
:1006F000F405813061F4429A439885E2E9E6F5E039
:10070000A3E6B6E001900D928A95E1F70BC04298FE
:10071000439A85E2EEE8F5E0A3E6B6E001900D929B
:100720008A95E1F76AE083E696E00E9482001092E3
:10073000F705FF91EF91BF91AF919F918F917F91BD
:100740006F915F914F913F912F910F900FBE0F903E
:100750001F901895EF92FF920F931F93CF93DF9303
:100760008230A1F50F2EF0E0EF2EF1E0FF2EF02DFC
:100770000CED11E0C5EDD7E025C08C918183119679
:100780008C9111978083128212963396EC17FD0795
:10079000A1F76EE670E08BE896E00E94E7002FEF8D
:1007A00086E791E0215080409040E1F700C00000D2
:1007B0008091F505823051F422E0E20EF11C0E1515
:1007C0001F0521F0EBE8F6E0D701D7CFDF91CF91FD
:1007D0001F910F91FF90EF9008950F931F93CF9368
:1007E000DF93EBE8F6E005ED17E0CFEFD0E026E988
:1007F00030E06091700470E0CE010E948404618357
:100800006091700470E0C9010E94840460831282C8
:100810003396E017F10769F76EE670E08BE896E033
:100820000E94E700DF91CF911F910F910895EBE8AF
:10083000F6E085ED97E01182108212823396E81778
:10084000F907C9F76EE670E08BE896E00E94E700D2
:10085000089581E284B98CE187B982E084BD95E096
:1008600095BD80936E009CE997BD109280009BE03F
:100870009093810080936F0084ED90E390938900C2
:100880008093880087E690E00E9453000E9417043E
:100890002FEF89E698E1215080409040E1F700C0B9
:1008A000000083E1EBEDF5E0A3E6B6E001900D92E8
:1008B0008A95E1F76AE083E696E00E9482007894E8
:1008C0008091F605813039F48091F505813019F475
:1008D0000E94ED03F5CF8091F605813039F48091C7
:1008E000F505823019F40E94AA03EACF8091F6053B
:1008F000882321F08091F5058111E2CF2D9842984F
:1009000043980E941704DCCF97FB072E16F400943F
:1009100007D077FD09D00E94980407FC05D03EF46B
:10092000909581959F4F0895709561957F4F08959B
:10093000AA1BBB1B51E107C0AA1FBB1FA617B70705
:1009400010F0A61BB70B881F991F5A95A9F7809521
:100950009095BC01CD010895AEE0B0E0E2EBF4E08B
:100960000C946D070D891E8986E08C831A83098398
:100970008FEF9FE79E838D83AE01475E5F4F6F8948
:10098000788DCE0101960E94CE04EF81F885E00FAC
:10099000F11F10822E96E4E00C948907ABE0B0E0E2
:1009A000E4EDF4E00C945F076C017B018A01FC012B
:1009B00017821682838181FFCCC1CE0101963C0152
:1009C000F6019381F70193FD859193FF81917F015A
:1009D000882309F4BAC1853239F493FD859193FFD8
:1009E00081917F01853229F4B60190E00E94C5060D
:1009F000E7CF912C212C312CFFE1F315D8F08B326D
:100A000079F038F4803279F08332A1F4232D20611B
:100A10001DC08D3261F0803369F4232D216016C032
:100A2000832D8260382EE32DE4603E2E2AC0F32D04
:100A3000F8601DC037FC2DC020ED280F2A3040F093
:100A40008E32B9F436FC81C1232D2064322E19C0B8
:100A500036FE06C08AE0989E200D1124922E11C009
:100A6000EAE02E9E200D1124222EF32DF0623F2E5F
:100A700008C08C3621F4832D8068382E02C0883659
:100A800041F4F70193FD859193FF81917F018111DD
:100A9000B3CF982F9F7D9554933028F40C5F1F4F50
:100AA0009FE399830DC0833631F0833771F083352E
:100AB00009F059C021C0F801808189830E5F1F4F62
:100AC00088248394912C530113C02801F2E04F0E27
:100AD000511CF801A080B18036FE03C0692D70E082
:100AE00002C06FEF7FEFC5010E94BA064C01820180
:100AF000F32DFF773F2E16C0280122E0420E511C35
:100B0000F801A080B18036FE03C0692D70E002C0FC
:100B10006FEF7FEFC5010E94AF064C01F32DF06827
:100B20003F2E820133FC1BC0822D90E0881699066F
:100B3000B0F4B60180E290E00E94C5062A94F4CF9A
:100B4000F50137FC859137FE81915F01B60190E098
:100B50000E94C50621102A9421E0821A910881146E
:100B6000910471F7E8C0843611F0893641F5F80137
:100B700037FE07C060817181828193810C5F1F4FB6
:100B800008C060817181072E000C880B990B0E5FE5
:100B90001F4FF32DFF763F2E97FF09C0909580954C
:100BA000709561957F4F8F4F9F4FF0683F2E2AE0E1
:100BB00030E0A3010E940107882E861845C08537C2
:100BC00031F4232D2F7EB22E2AE030E025C0932D64
:100BD000997FB92E8F36C1F018F4883579F0B5C0F9
:100BE000803719F0883721F0B0C0E92FE061BE2EC0
:100BF000B4FE0DC0FB2DF460BF2E09C034FE0AC048
:100C0000292F2660B22E06C028E030E005C020E182
:100C100030E002C020E132E0F801B7FE07C0608199
:100C20007181828193810C5F1F4F06C06081718149
:100C300080E090E00E5F1F4FA3010E940107882E05
:100C40008618FB2DFF773F2E36FE0DC0232D2E7FFD
:100C5000A22E891458F434FE0BC032FC09C0832D37
:100C60008E7EA82E05C0B82CA32C03C0B82C01C0C2
:100C7000B92CA4FE0FC0FE01E80DF11D8081803368
:100C800021F49A2D997EA92E09C0A2FE06C0B39424
:100C9000B39404C08A2D867809F0B394A3FC11C0E4
:100CA000A0FE06C0B21488F4280C922C9B180EC02B
:100CB000B21460F4B60180E290E00E94C506B394DD
:100CC000F7CFB21418F42B1802C0982C212CA4FED4
:100CD00010C0B60180E390E00E94C506A2FE17C0D6
:100CE000A1FC03C088E790E002C088E590E0B6016F
:100CF0000CC08A2D867859F0A1FE02C08BE201C09B
:100D000080E2A7FC8DE2B60190E00E94C50689143E
:100D100038F4B60180E390E00E94C5069A94F7CFBC
:100D20008A94F301E80DF11D8081B60190E00E94E4
:100D3000C5068110F5CF222009F442CEB60180E22B
:100D400090E00E94C5062A94F6CFF601868197812D
:100D500002C08FEF9FEF2B96E2E10C947B07FC0122
:100D60000590615070400110D8F7809590958E0FD6
:100D70009F1F0895FC016150704001900110D8F749
:100D8000809590958E0F9F1F08950F931F93CF937B
:100D9000DF93FB01238121FD03C08FEF9FEF2CC068
:100DA00022FF16C04681578124813581421753079F
:100DB00044F4A081B1819D012F5F3F4F3183208397
:100DC0008C93268137812F5F3F4F3783268314C052
:100DD0008B01EC01FB010084F185E02D0995892B45
:100DE000E1F6D80116968D919C911797019617966A
:100DF0009C938E931697CE01DF91CF911F910F9107
:100E00000895FA01AA27283051F1203181F1E894A0
:100E10006F936E7F6E5F7F4F8F4F9F4FAF4FB1E0ED
:100E20003ED0B4E03CD0670F781F891F9A1FA11DE8
:100E3000680F791F8A1F911DA11D6A0F711D811DE9
:100E4000911DA11D20D009F468943F912AE0269FAE
:100E500011243019305D3193DEF6CF010895462F0D
:100E60004770405D4193B3E00FD0C9F7F6CF462FEE
:100E70004F70405D4A3318F0495D31FD4052419357
:100E800002D0A9F7EACFB4E0A69597958795779514
:100E90006795BA95C9F700976105710508959B019B
:100EA000AC010A2E06945795479537952795BA9524
:100EB000C9F7620F731F841F951FA01D08952F92FD
:100EC0003F924F925F926F927F928F929F92AF92DA
:100ED000BF92CF92DF92EF92FF920F931F93CF9327
:100EE000DF93CDB7DEB7CA1BDB0B0FB6F894DEBFBE
:100EF0000FBECDBF09942A88398848885F846E84E4
:100F00007D848C849B84AA84B984C884DF80EE802D
:100F1000FD800C811B81AA81B981CE0FD11D0FB636
:100F2000F894DEBF0FBECDBFED010895F894FFCF5A
:100F300002010503070409050C070E08100A130B2C
:100F4000150C170E1A0F1C101E1220132314251631
:100F500027172A192C1A2E1B311D331E351F382135
:100F60003A223C233F25412643284629482A4A2C39
:100F70004D2D4F2E51305331563258345A355D373E
:100F80005F386139643B663C683D6B3F6D406F4143
:100F900072437444764679477B487D4A804B824C45
:100FA000844E864F89508B528D539055925694574C
:100FB0009759995A9B5B9E5DA05EA25FA561A7624F
:100FC000A964AC65AE66B068B369B56AB76CB96D53
:100FD000BC6EBE70C071C373C574C775CA77CC7858
:100FE000CE79D17BD37CD57DD87FDA80DC82DF835C
:100FF000E184E386E687E888EA8AEC8BEF8CF18E61
:10100000F38FF691F892FA93FD95FF96020105038E
:10101000070409050C070E08100A130B150C170E10
:101020001A0F1C101E1220132314251627172A1915
:101030002C1A2E1B311D331E351F38213A223C231A
:101040003F25412643284629482A4A2C4D2D4F2E1C
:1010500051305331563258345A355D375F38613923
:10106000643B663C683D6B3F6D406F417243744426
:10107000764679477B487D4A804B824C844E864F2A
:1010800089508B528D539055925694579759995A2F
:101090009B5B9E5DA05EA25FA561A762A964AC6533
:1010A000AE66B068B369B56AB76CB96DBC6EBE7038
:1010B000C071C373C574C775CA77CC78CE79D17B3C
:1010C000D37CD57DD87FDA80DC82DF83E184E38640
:1010D000E687E888EA8AEC8BEF8CF18EF38FF69145
:1010E000F892FA93FD95FF960000000000000000C2
:1010F00000000000000000000000000000000000F0
:1011000000000000000000000000000000000000DF
:1011100000000000000000000000000000000000CF
:1011200000000000000000000000000000000000BF
:1011300000000000000000000000000000000000AF
:10114000000000000000000000000000000000009F
:10115000000000000000000000000000000000008F
:10116000000000000000000000000000000000007F
:10117000000000000000000000000000000000006F
:10118000000000000000000000000000000000005F
:10119000000000000000000000000000000000004F
:1011A000000000000000000000000000000000003F
:1011B000000000000000000000000000000000002F
:1011C000000000000000000000000000000000001F
:1011D000000000000000000000000000000000000F
:1011E00000000000000000000000000000000000FF
:1011F00000000000000000000000000000000000EF
:1012000000000000000000000000000000000000DE
:1012100000000000000000000000000000000000CE
:1012200000000000000000000000000000000000BE
:1012300000000000000000000000000000000000AE
:10124000000000000000000000000000000000009E
:10125000000000000000000000000000000000008E
:10126000000000000000000000000000000000007E
:10127000000000000000000000000000000000006E
:10128000000000000000000000000000000000005E
:10129000000000000000000000000000000000004E
:1012A000012D2D2D206D61696E5F6D6F64652020AD
:1012B0003A202025646D696E204F464620202D2D52
:1012C0002D0A002D2D2D206D61696E5F6D6F646597
:1012D00020203A20204F4E20202D2D2D0A002D2D8C
:1012E0002D206D61696E5F6D6F646520203A20204E
:1012F0004F4646202D2D2D0A002D2D2D206C656486
:101300005F6D6F646520203A20204F4E20202D2DE8
:101310002D2C202064696D6D696E67203D20256449
:101320000A002D2D2D206C65645F6D6F6465202093
:101330003A2020414E49202D2D2D2C202064696D0E
:101340006D696E67203D2025640A002D2D2D206CCF
:1013500065645F6D6F646520203A20204F4646200B
:101360002D2D2D2C202064696D6D696E67203D2028
:1013700025640A002D2D2D2074696D65725F6D6FD7
:10138000646520203D2054696D6572206F6666207B
:10139000202020202D2D2D0A002D2D2D2074696D4B
:1013A00065725F6D6F646520203D2054696D6572C4
:1013B0002033306D696E2020202D2D2D0A002D2D1B
:1013C0002D2074696D65725F6D6F646520203D200E
:1013D00054696D65722036306D696E2020202D2D88
:1013E0002D0A002D2D2D206D61696E5F62746E5F78
:1013F0006D6F646520203A2020426C7565746F6FB4
:101400007468204F4E202D2D2D0A002D2D2D204E9D
:0E1410006F77205374617274202D2D2D0A0009
:00000001FF
