:1000000045C0000060C000005EC000005CC0000091
:100010005AC0000058C0000056C0000054C0000084
:1000200052C0000050C000004EC000004CC0000094
:100030004AC0000048C0000046C0000044C00000A4
:1000400042C0000040C000005CC000003CC0000096
:100050003AC0000038C0000036C0000034C00000C4
:1000600032C0000030C000002EC000002CC00000D4
:100070002AC0000028C0000026C0000024C00000E4
:1000800022C0000020C000001EC0000011241FBEBE
:10009000CFEFD0E1DEBFCDBF11E0A0E0B1E0E4E4FE
:1000A000F3E000E00BBF02C007900D92AE30B10745
:1000B000D9F721E0AEE0B1E001C01D92AC39B20742
:1000C000E1F7E3D03DC19CCF2091000190E4299F4E
:1000D000900111248F71282B27B987E886B9369AA9
:1000E000349BFECF84B125B190E0922B089588E92E
:1000F0008AB986E0809395001092900087E689B9CE
:1001000008951F920F920FB60F9211240BB60F9203
:100110002F933F934F935F938F939F93AF93BF938F
:10012000EF93FF938CB190910E01911130C08F35F8
:1001300019F410920F012BC08F32E9F480910F0156
:10014000882399F0E8E8F1E0A4E7B1E090E088576F
:100150009E4F4EE851E030E22C9121933D93E817F9
:10016000F90719F0E417F507B9F710920F0181E0CC
:1001700080930E010CC090910F019A3040F4E92F4A
:10018000F0E0EC58FE4F80839F5F90930F01FF914A
:10019000EF91BF91AF919F918F915F914F913F915F
:1001A0002F910F900BBE0F900FBE0F901F901895C0
:1001B000CF93DF93CDB7DEB768970FB6F894DEBF65
:1001C0000FBECDBF9C018CE0E1E0F1E0DE011196B5
:1001D00001900D928A95E1F781E08D8782E08E870C
:1001E00084E08F8788E0888B332344F48BE090E0B1
:1001F000988F8F8B31952195310906C0C90168EE22
:1002000073E077D0788F6F8BC90164E670E071D0AE
:10021000CB01EAE0F0E0BF016CD09E8B8D8BC90171
:10022000BF0167D09C01CB01BF0163D09C8B8B8B3E
:100230003A8B298BDE015196CE010D96BE01675E89
:100240007F4F45E650E0ED91FD9121E030E02C0F2D
:100250003D1FE20FF31F208125BBFC012191CF013F
:10026000FA012083AF9AEFE3FFE13197F1F700C085
:100270000000A617B70739F768960FB6F894DEBFE7
:100280000FBECDBFDF91CF91089580E090E041E0B7
:1002900050E064B39A01082E02C0220F331F0A9463
:1002A000E2F7262B24BB01968830910591F7E4E60E
:1002B000F0E08081816080838081826080838081A2
:1002C0008460808380818860808311DF7894C1E0BE
:1002D000D0E001C02196C130D10529F480E0F4DEE0
:1002E0008C0166DFF7CFC80163DFCE31D10594F30F
:1002F000EECF97FB072E16F4009406D077FD08D0BA
:100300000BD007FC05D03EF4909581959F4F089542
:10031000709561957F4F0895AA1BBB1B51E107C0E3
:10032000AA1FBB1FA617B70710F0A61BB70B881F85
:10033000991F5A95A9F780959095BC01CD01089514
:04034000F894FFCF5F
:0E034400013F065B4F666D7C077F670040003F
:00000001FF
