:100000000C9434000C9451000C9451000C94510049
:100010000C9451000C9451000C9451000C9451001C
:100020000C9451000C9451000C9451000C949A01C2
:100030000C9451000C9451000C94E7000C94510066
:100040000C9451000C9451000C949F000C9451009E
:100050000C9451000C9451000C9451000C945100DC
:100060000C9451000C94510011241FBECFEFD8E026
:10007000DEBFCDBF12E0A0E0B1E0E0EFFDE002C0E6
:1000800005900D92AE37B107D9F724E0AEE7B2E0A4
:1000900001C01D92A536B207E1F70E94D4030C946B
:1000A000F6060C9400009093C5008093C40088E984
:1000B0008093C1008EE08093C2000895E0ECF0E0F0
:1000C000908195FFFDCF8093C60008958A3010F48B
:1000D000805D0895895C0895CF93DF93C82F829542
:1000E0008F700E946600D82F8C2F8F700E94660040
:1000F000C82F8D2F0E945E008C2F0E945E00DF9122
:10010000CF910895CF93DF93EC016A3051F4888149
:10011000882391F021960E945E0089918111FBCF86
:100120000BC06B3049F48881882331F021960E94FE
:100130006C0089918111FBCFDF91CF9108951F92BF
:100140000F920FB60F9211242F933F934F935F930B
:100150006F937F938F939F93AF93BF93EF93FF938F
:100160008091C60080930A04E091D70391E09E0F2E
:100170009093D703F0E0E852FC4F80830E945E002A
:100180008091D703833091F4EBE0F4E0A8EDB3E085
:100190008D919C9111979183808312968C9182838B
:1001A00013821092D70381E080937E02FF91EF913A
:1001B000BF91AF919F918F917F916F915F914F917F
:1001C0003F912F910F900FBE0F901F9018951F9287
:1001D0000F920FB60F9211242F933F934F935F937B
:1001E0006F937F938F939F93AF93BF93EF93FF93FF
:1001F0008091CB038F5F8093CB032091CB038DEC59
:10020000289F812D112482958F70880F880F982F39
:10021000990F990F890F281304C095B180E289279F
:1002200085B98091CB03843639F48091CA038F5FFE
:100230008093CA031092CB038091CA038C3339F4A4
:100240008091C9038F5F8093C9031092CA03809184
:10025000D003813009F050C08091CE03813029F560
:100260008091C903853009F047C08091C9031F926E
:100270008F9381E091E09F938F938DE394E09F9320
:100280008F930E940C046AE08DE394E00E94820048
:100290001092D0031092CF031092CE030F900F90C4
:1002A0000F900F900F900F9027C08091CE03823057
:1002B00019F58091C9038A30F9F48091C9031F921E
:1002C0008F9381E091E09F938F938DE394E09F93D0
:1002D0008F930E940C046AE08DE394E00E948200F8
:1002E0001092D0031092CF031092CE030F900F9074
:1002F0000F900F900F900F908091D003811109C043
:100300008091CF03811105C08091CE03811101C07E
:100310002D98FF91EF91BF91AF919F918F917F9118
:100320006F915F914F913F912F910F900FBE0F9062
:100330001F9018951F920F920FB60F9211242F93B2
:100340003F934F935F936F937F938F939F93AF935D
:10035000BF93EF93FF934A9915C08091D603811103
:1003600006C081E08093D6031092D30355C08091DC
:10037000D3038C3308F050C08091D3038F5F8093F8
:10038000D3034AC01092D6038091D303882309F483
:1003900041C08091D303843198F08091D0038130A3
:1003A000C9F588E2E3E4F2E0ADE3B4E001900D9238
:1003B0008A95E1F76AE08DE394E00E9482002AC00A
:1003C0008091D003811112C081E08093D00380938B
:1003D000CF038FEF809300018BE1E3E2F1E0ADE327
:1003E000B4E001900D928A95E1F70FC01092D0030E
:1003F0001092CF031092CE038BE1EEE3F1E0ADE378
:10040000B4E001900D928A95E1F76AE08DE394E003
:100410000E9482001092D3034B9934C08091D5037F
:10042000811108C081E08093D5031092D20310920D
:10043000CC03D9C08091D2038F5F8093D203809187
:10044000CF03813029F08091CF03823009F0CBC0F7
:100450008091CD0381110BC080910001882309F4A4
:10046000C2C080910001855080930001BCC0809182
:1004700000018F3F09F4B7C0809100018B5F80932A
:100480000001B1C01092D5038091D203882309F4F2
:10049000A6C08091D2038B3008F446C08091CF0370
:1004A000813021F08091CF03823039F49091CD03D7
:1004B00081E0911180E08093CD038091CF03813062
:1004C000A9F4809100011F928F9389E591E09F9399
:1004D0008F938DE394E09F938F930E940C040F9071
:1004E0000F900F900F900F900F9018C08091CF0336
:1004F0008230A1F4809100011F928F9382E891E0F5
:100500009F938F938DE394E09F938F930E940C04AD
:100510000F900F900F900F900F900F906AE08DE367
:1005200094E00E9482005BC08091D003813009F08A
:1005300056C08091CF038F5F8093CF038091CF030C
:10054000833010F01092CF038091CF03811115C03A
:10055000809100011F928F938BEA91E09F938F937C
:100560008DE394E09F938F930E940C040F900F9063
:100570000F900F900F900F902DC08091CF0381307E
:10058000A9F4809100011F928F9389E591E09F93D8
:100590008F938DE394E09F938F930E940C040F90B0
:1005A0000F900F900F900F900F9014C0809100014A
:1005B0001F928F9382E891E09F938F938DE394E055
:1005C0009F938F930E940C040F900F900F900F90A9
:1005D0000F900F906AE08DE394E00E9482001092E9
:1005E000D2031092CC034C9915C08091D403811191
:1005F00006C081E08093D4031092D10353C0809150
:10060000D1038C3308F04EC08091D1038F5F80936B
:10061000D10348C01092D4038091D103882309F4F8
:100620003FC08091D0038130D9F51092CB03109256
:10063000CA031092C9038091CE038F5F8093CE03CB
:100640008091CE03833010F01092CE038091CE03C0
:1006500081110AC085E2E4EDF1E0ADE3B4E0019080
:100660000D928A95E1F717C08091CE03813051F445
:1006700085E2E9EFF1E0ADE3B4E001900D928A95F7
:10068000E1F709C085E2EEE1F2E0ADE3B4E001900C
:100690000D928A95E1F76AE08DE394E00E94820072
:1006A0001092D103FF91EF91BF91AF919F918F91E4
:1006B0007F916F915F914F913F912F910F900FBE5E
:1006C0000F901F90189598E041E032E088234CF499
:1006D000289A232F2A95F1F72898242F2A95F1F7A5
:1006E00008C0289A242F2A95F1F72898232F2A95B5
:1006F000F1F7880F915051F708950F931F93CF93FF
:10070000DF93CFE7D2E009EC13E0FE018091000116
:10071000808380910001818312823396E017F10774
:10072000A9F789810E94630388810E9463038A81FB
:100730000E9463032396C017D10799F78FEA94E0CC
:100740000197F1F700C00000DF91CF911F910F9149
:1007500008950F931F93CF93DF93CFE7D2E009EC77
:1007600013E0FE011082118212823396E017F10726
:10077000C9F789810E94630388810E9463038A818B
:100780000E9463032396C017D10799F72FEF89EFD3
:1007900090E0215080409040E1F700C00000DF91E0
:1007A000CF911F910F91089581E284B982E084BDB9
:1007B00095E095BD80936E009CE997BD10928000F6
:1007C0009BE09093810080936F0084ED90E3909381
:1007D00089008093880087E690E00E9453000E9481
:1007E000A9032FEF89E698E1215080409040E1F77E
:1007F00000C0000083E1EBE6F2E0ADE3B4E001907D
:100800000D928A95E1F76AE08DE394E00E94820000
:1008100078940E947D03FDCFAEE0B0E0E2E1F4E029
:100820000C94CD060D891E8986E08C831A8309837A
:100830008FEF9FE79E838D83AE01475E5F4F6F8989
:10084000788DCE0101960E942E04EF81F885E00F8D
:10085000F11F10822E96E4E00C94E906ABE0B0E0C4
:10086000E4E3F4E00C94BF066C017B018A01FC0117
:1008700017821682838181FFCCC1CE0101963C0193
:10088000F6019381F70193FD859193FF81917F019B
:10089000882309F4BAC1853239F493FD859193FF19
:1008A00081917F01853229F4B60190E00E942506EE
:1008B000E7CF912C212C312CFFE1F315D8F08B32AE
:1008C00079F038F4803279F08332A1F4232D20615D
:1008D0001DC08D3261F0803369F4232D216016C074
:1008E000832D8260382EE32DE4603E2E2AC0F32D46
:1008F000F8601DC037FC2DC020ED280F2A3040F0D5
:100900008E32B9F436FC81C1232D2064322E19C0F9
:1009100036FE06C08AE0989E200D1124922E11C04A
:10092000EAE02E9E200D1124222EF32DF0623F2EA0
:1009300008C08C3621F4832D8068382E02C088369A
:1009400041F4F70193FD859193FF81917F0181111E
:10095000B3CF982F9F7D9554933028F40C5F1F4F91
:100960009FE399830DC0833631F0833771F083356F
:1009700009F059C021C0F801808189830E5F1F4FA3
:1009800088248394912C530113C02801F2E04F0E68
:10099000511CF801A080B18036FE03C0692D70E0C3
:1009A00002C06FEF7FEFC5010E941A064C01820161
:1009B000F32DFF773F2E16C0280122E0420E511C76
:1009C000F801A080B18036FE03C0692D70E002C03E
:1009D0006FEF7FEFC5010E940F064C01F32DF06809
:1009E0003F2E820133FC1BC0822D90E088169906B1
:1009F000B0F4B60180E290E00E9425062A94F4CF7C
:100A0000F50137FC859137FE81915F01B60190E0D9
:100A10000E94250621102A9421E0821A910881144F
:100A2000910471F7E8C0843611F0893641F5F80178
:100A300037FE07C060817181828193810C5F1F4FF7
:100A400008C060817181072E000C880B990B0E5F26
:100A50001F4FF32DFF763F2E97FF09C0909580958D
:100A6000709561957F4F8F4F9F4FF0683F2E2AE022
:100A700030E0A3010E946106882E861845C08537A4
:100A800031F4232D2F7EB22E2AE030E025C0932DA5
:100A9000997FB92E8F36C1F018F4883579F0B5C03A
:100AA000803719F0883721F0B0C0E92FE061BE2E01
:100AB000B4FE0DC0FB2DF460BF2E09C034FE0AC089
:100AC000292F2660B22E06C028E030E005C020E1C4
:100AD00030E002C020E132E0F801B7FE07C06081DB
:100AE0007181828193810C5F1F4F06C0608171818B
:100AF00080E090E00E5F1F4FA3010E946106882EE8
:100B00008618FB2DFF773F2E36FE0DC0232D2E7F3E
:100B1000A22E891458F434FE0BC032FC09C0832D78
:100B20008E7EA82E05C0B82CA32C03C0B82C01C003
:100B3000B92CA4FE0FC0FE01E80DF11D80818033A9
:100B400021F49A2D997EA92E09C0A2FE06C0B39465
:100B5000B39404C08A2D867809F0B394A3FC11C025
:100B6000A0FE06C0B21488F4280C922C9B180EC06C
:100B7000B21460F4B60180E290E00E942506B394BE
:100B8000F7CFB21418F42B1802C0982C212CA4FE15
:100B900010C0B60180E390E00E942506A2FE17C0B7
:100BA000A1FC03C088E790E002C088E590E0B601B0
:100BB0000CC08A2D867859F0A1FE02C08BE201C0DC
:100BC00080E2A7FC8DE2B60190E00E942506891420
:100BD00038F4B60180E390E00E9425069A94F7CF9E
:100BE0008A94F301E80DF11D8081B60190E00E9426
:100BF00025068110F5CF222009F442CEB60180E20D
:100C000090E00E9425062A94F6CFF601868197810E
:100C100002C08FEF9FEF2B96E2E10C94DB06FC0104
:100C20000590615070400110D8F7809590958E0F17
:100C30009F1F0895FC016150704001900110D8F78A
:100C4000809590958E0F9F1F08950F931F93CF93BC
:100C5000DF93FB01238121FD03C08FEF9FEF2CC0A9
:100C600022FF16C0468157812481358142175307E0
:100C700044F4A081B1819D012F5F3F4F31832083D8
:100C80008C93268137812F5F3F4F3783268314C093
:100C90008B01EC01FB010084F185E02D0995892B86
:100CA000E1F6D80116968D919C91179701961796AB
:100CB0009C938E931697CE01DF91CF911F910F9148
:100CC0000895FA01AA27283051F1203181F1E894E2
:100CD0006F936E7F6E5F7F4F8F4F9F4FAF4FB1E02F
:100CE0003ED0B4E03CD0670F781F891F9A1FA11D2A
:100CF000680F791F8A1F911DA11D6A0F711D811D2B
:100D0000911DA11D20D009F468943F912AE0269FEF
:100D100011243019305D3193DEF6CF010895462F4E
:100D20004770405D4193B3E00FD0C9F7F6CF462F2F
:100D30004F70405D4A3318F0495D31FD4052419398
:100D400002D0A9F7EACFB4E0A69597958795779555
:100D50006795BA95C9F700976105710508959B01DC
:100D6000AC010A2E06945795479537952795BA9565
:100D7000C9F7620F731F841F951FA01D08952F923E
:100D80003F924F925F926F927F928F929F92AF921B
:100D9000BF92CF92DF92EF92FF920F931F93CF9368
:100DA000DF93CDB7DEB7CA1BDB0B0FB6F894DEBFFF
:100DB0000FBECDBF09942A88398848885F846E8425
:100DC0007D848C849B84AA84B984C884DF80EE806F
:100DD000FD800C811B81AA81B981CE0FD11D0FB678
:100DE000F894DEBF0FBECDBFED010895F894FFCF9C
:100DF000FF2D2D2D206D61696E5F6D6F6465202064
:100E00003A202025646D696E204F464620202D2D06
:100E10002D0A002D2D2D206D61696E5F6D6F64654B
:100E200020203A20204F4E20202D2D2D0A002D2D40
:100E30002D206D61696E5F6D6F646520203A202002
:100E40004F4646202D2D2D0A002D2D2D206C65643A
:100E50005F6D6F646520203A20204F4E20202D2D9D
:100E60002D2C202064696D6D696E67203D202564FE
:100E70000A002D2D2D206C65645F6D6F6465202048
:100E80003A2020414E49202D2D2D2C202064696DC3
:100E90006D696E67203D2025640A002D2D2D206C84
:100EA00065645F6D6F646520203A20204F464620C0
:100EB0002D2D2D2C202064696D6D696E67203D20DD
:100EC00025640A002D2D2D2074696D65725F6D6F8C
:100ED000646520203D2054696D6572206F66662030
:100EE000202020202D2D2D0A002D2D2D2074696D00
:100EF00065725F6D6F646520203D2054696D657279
:100F00002033306D696E2020202D2D2D0A002D2DCF
:100F10002D2074696D65725F6D6F646520203D20C2
:100F200054696D65722036306D696E2020202D2D3C
:100F30002D0A002D2D2D206D61696E5F62746E5F2C
:100F40006D6F646520203A2020426C7565746F6F68
:100F50007468204F4E202D2D2D0A002D2D2D204E52
:0E0F60006F77205374617274202D2D2D0A00BE
:00000001FF
