:020000040800F2
:10000000000001201D2A0008612700086D27000854
:1000100073270008792700087F27000800000000E8
:10002000000000000000000000000000852700081C
:1000300091270008000000009D270008A92700085C
:10004000652A0008652A0008652A0008652A000854
:10005000652A0008652A0008652A0008652A000844
:10006000652A0008652A0008652A0008652A000834
:10007000652A0008652A0008652A0008652A000824
:10008000B5270008652A0008652A0008652A0008C7
:10009000652A0008652A0008652A0008652A000804
:1000A000652A0008652A0008652A0008652A0008F4
:1000B000652A0008652A0008652A0008652A0008E4
:1000C000652A0008652A0008652A0008652A0008D4
:1000D000652A0008652A0008652A0008652A0008C4
:1000E000652A0008652A0008652A0008652A0008B4
:1000F000652A0008652A0008652A0008652A0008A4
:10010000652A0008652A0008652A0008652A000893
:10011000652A0008652A0008652A0008652A000883
:10012000652A0008652A0008652A0008652A000873
:1001300000000000000000000000000000000000BF
:1001400000000000000000000000000000000000AF
:10015000000000000000000000000000000000009F
:10016000000000000000000000000000000000008F
:10017000000000000000000000000000000000007F
:10018000000000000000000000000000000000006F
:10019000000000000000000000000000000000005F
:1001A000000000000000000000000000000000004F
:1001B000000000000000000000000000000000003F
:1001C000000000000000000000000000000000002F
:1001D000000000000000000000000000000000001F
:0401E0005FF8E0F1F3
:1001E40010B5054C237833B9044B13B10448AFF36D
:1001F40000800123237010BD9C0900200000000032
:10020400C02A000808B5034B1BB103490348AFF3E8
:10021400008008BD00000000A0090020C02A0008DA
:1002240080B500AF084B1B68074A43F01003136006
:10023400032000F041F9002000F008F802F05CFA15
:100244000023184680BD00BF0020024080B582B064
:1002540000AF7860124B1A68124B1B7819464FF4A2
:100264007A73B3FBF1F3B2FBF3F3184600F059F9D8
:100274000346002B01D001230EE07B680F2B0AD824
:10028400002279684FF0FF3000F021F9064A7B68BC
:100294001360002300E0012318460837BD4680BDE3
:1002A40098090020040000200000002080B400AF62
:1002B400054B1B781A46054B1B681344034A13600D
:1002C40000BFBD4680BC704704000020B809002070
:1002D40080B400AF024B1B681846BD4680BC704713
:1002E400B809002080B584B000AF7860FFF7F0FF54
:1002F400B8607B68FB60FB68B3F1FF3F05D0094B36
:100304001B781A46FB681344FB6000BFFFF7E0FF4D
:100314000246BB68D31AFA689A42F7D800BF10376E
:10032400BD4680BD0400002080B485B000AF786075
:100334007B6803F00703FB600C4BDB68BB60BA68A7
:100344004FF6FF031340BB60FB681A02BB681343FC
:1003540043F0BF6343F40033BB60044ABB68D3601B
:1003640000BF1437BD4680BC704700BF00ED00E0FD
:1003740080B400AF044BDB681B0A03F00703184684
:10038400BD4680BC704700BF00ED00E080B483B080
:1003940000AF0346FB71FB7903F01F02064997F98E
:1003A40007305B09012000FA02F241F8232000BF64
:1003B4000C37BD4680BC704700E100E080B483B0D8
:1003C40000AF03463960FB7197F90730002B0BDA55
:1003D4003B68DAB20C49FB7903F00F03043B1201CA
:1003E400D2B20B441A7609E03B68DAB2074997F9AE
:1003F40007301201D2B20B4483F8002300BF0C373C
:10040400BD4680BC704700BF00ED00E000E100E0A5
:1004140080B489B000AFF860B9607A60FB6803F01B
:100424000703FB61FB69C3F10703042B28BF042303
:10043400BB61FB690433062B02D9FB69033B00E073
:1004440000237B614FF0FF32BB6902FA03F3DA4306
:10045400BB681A407B699A404FF0FF317B6901FA0F
:1004640003F3D9437B680B40134318462437BD4636
:1004740080BC704780B582B000AF78607B68013B78
:10048400B3F1807F01D301230FE00A4A7B68013B6B
:1004940053600F214FF0FF30FFF790FF054B002210
:1004A4009A60044B07221A60002318460837BD4699
:1004B40080BD00BF10E000E080B582B000AF78607E
:1004C4007868FFF731FF00BF0837BD4680BD80B5AF
:1004D40086B000AF0346B9607A60FB7300237B618A
:1004E400FFF746FF78617A68B9687869FFF790FF8B
:1004F400024697F90F3011461846FFF75FFF00BF19
:100504001837BD4680BD80B582B000AF0346FB718D
:1005140097F907301846FFF739FF00BF0837BD4683
:1005240080BD80B582B000AF78607868FFF7A2FF25
:10053400034618460837BD4680BD000080B485B028
:1005440000AF78600023FB607B68002B01D101239E
:1005540059E07B681B681A462D4B9A420FD87B687A
:100564001B681A462B4B13442B4AA2FB03231B097B
:100574009A007B681A647B68284ADA630EE07B6819
:100584001B681A46264B1344234AA2FB03231B0968
:100594009A007B681A647B68224ADA637B680222C9
:1005A40083F821207B681B681B68FB60FB6823F4CD
:1005B4007F5323F03003FB607B685A687B689B6839
:1005C4001A437B68DB681A437B681B691A437B68A0
:1005D4005B691A437B689B691A437B68DB69134335
:1005E400FA681343FB607B681B68FA681A607B68CF
:1005F40000229A637B68012283F821207B68002211
:1006040083F82020002318461437BD4680BC704769
:1006140007040240F8FFFDBFCDCCCCCC0000024063
:10062400F8FBFDBF0004024080B586B000AFF8605F
:10063400B9607A603B600023FB75FB6893F8203057
:10064400012B01D102234AE0FB68012283F8202018
:10065400FB6893F82130012B3AD1FB68022283F81E
:100664002120FB6800229A63FB681B681A68FB68F8
:100674001B6822F001021A603B687A68B968F8685E
:1006840000F06EFAFB68DB6A002B08D0FB681B687D
:100694001A68FB681B6842F00E021A600FE0FB68E0
:1006A4001B681A68FB681B6822F004021A60FB6866
:1006B4001B681A68FB681B6842F00A021A60FB6830
:1006C4001B681A68FB681B6842F001021A6005E0A7
:1006D400FB68002283F820200223FB75FB7D18466B
:1006E4001837BD4680BD000080B584B000AF786087
:1006F4007B68DB6B1B68FB607B681B681B68BB60EB
:100704007B681B6C04229A40FB681340002B00F0AA
:10071400D680BB6803F00403002B00F0D0807B6814
:100724001B681B6803F02003002B07D17B681B6840
:100734001A687B681B6822F004021A607B681B68D5
:100744001A469B4B9A4258D97B681B68994A934234
:100754004FD07B681B68984A934248D07B681B68DB
:10076400964A934240D07B681B68954A934238D09E
:100774007B681B68934A934230D07B681B68924A1B
:10078400934228D07B681B68894A934220D07B68B7
:100794001B688E4A934219D07B681B688C4A93422B
:1007A40012D07B681B688B4A93420AD07B681B6813
:1007B400894A934202D14FF480431BE04FF48023D3
:1007C40018E04FF4806315E0402313E0042311E0A4
:1007D4004FF080630EE04FF480030BE04FF480236E
:1007E40008E04FF4804305E04FF4806302E04023C7
:1007F40000E00423794A536057E07B681B686D4A24
:1008040093424FD07B681B686B4A934248D07B6805
:100814001B686A4A934240D07B681B68684A9342CB
:1008240038D07B681B68674A934230D07B681B686A
:10083400654A934228D07B681B685D4A934220D066
:100844007B681B68614A934219D07B681B68604AC5
:10085400934212D07B681B685E4A93420AD07B683D
:100864001B685D4A934202D14FF480431BE04FF46E
:10087400802318E04FF4806315E0402313E0042341
:1008840011E04FF080630EE04FF480030BE04FF46F
:10089400802308E04FF4804305E04FF4806302E0D6
:1008A400402300E004234E4A53607B68DB6A002B3C
:1008B40000F036817B68DB6A7868984730E17B68B2
:1008C4001B6C02229A40FB681340002B00F0F88056
:1008D400BB6803F00203002B00F0F2807B681B6806
:1008E4001B6803F02003002B0BD17B681B681A687C
:1008F4007B681B6822F00A021A607B68012283F875
:1009040021207B681B681A46294B9A4273D97B685D
:100914001B68284A93426AD07B681B68264A934224
:1009240063D07B681B68254A93425BD07B681B6855
:10093400234A934238D07B681B68224A934230D0C2
:100944007B681B68204A934228D07B681B68184A3E
:10095400934220D07B681B681C4A934219D07B6861
:100964001B681B4A934212D07B681B68194A934246
:100974000AD07B681B68184A934202D14FF4005393
:1009840036E04FF4003333E04FF4007330E02023BB
:100994002EE002232CE04FF0007329E04FF4001303
:1009A40026E04FF4003323E04FF4005320E000BF6F
:1009B40080000240080002401C0002403000024057
:1009C40044000240580002406C0002400804024007
:1009D4001C0402403004024044040240000402406B
:1009E400000002404FF4007302E0202300E00223E1
:1009F4004E4A536057E07B681B684D4A93424FD080
:100A04007B681B684B4A934248D07B681B684A4A00
:100A1400934240D07B681B68484A934238D07B6835
:100A24001B68474A934230D07B681B68454A93420F
:100A340028D07B681B68444A934220D07B681B689B
:100A4400424A934219D07B681B68414A934212D0B0
:100A54007B681B683F4A93420AD07B681B683E4A06
:100A6400934202D14FF400531BE04FF4003318E0DB
:100A74004FF4007315E0202313E0022311E04FF03C
:100A840000730EE04FF400130BE04FF4003308E062
:100A94004FF4005305E04FF4007302E0202300E01C
:100AA40002232E4A53607B68002283F820207B684F
:100AB4009B6A002B34D07B689B6A786898472FE048
:100AC4007B681B6C08229A40FB681340002B28D0DB
:100AD400BB6803F00803002B23D07B681B681A68EB
:100AE4007B681B6822F00E021A607B681A6C7B68B4
:100AF400DB6B012101FA02F25A607B6801229A63DE
:100B04007B68012283F821207B68002283F820205F
:100B14007B681B6B002B04D07B681B6B7868984741
:100B240000BF00BF1037BD4680BD00BF00040240B7
:100B3400080002401C000240300002404400024011
:100B4400580002406C000240800002400804024049
:100B54001C040240300402404404024000000240ED
:100B640080B485B000AFF860B9607A603B60FB6820
:100B74001A6CFB68DB6B012101FA02F25A60FB6814
:100B84001B683A685A60FB685B68102B08D1FB68E5
:100B94001B687A689A60FB681B68BA68DA6007E0C9
:100BA400FB681B68BA689A60FB681B687A68DA603D
:100BB40000BF1437BD4680BC7047000080B48BB0C2
:100BC40000AF786039600023FB610023BB61002320
:100BD4007B6100233B6200233B6100237B6233E1A2
:100BE40001227B6A02FA03F3FB613B681B68FA6922
:100BF4001340BB61BA69FB699A4240F022813B68A9
:100C04005B68122B34D0122B0DD8022B2BD0022B65
:100C140004D8002B31D0012B1CD048E0032B43D047
:100C2400112B1BD043E08D4A934226D08B4A93422A
:100C340006D88B4A934220D08A4A93421DD036E08C
:100C4400894A934219D0894A934216D0884A9342DA
:100C540013D02CE03B68DB683B6228E03B68DB6830
:100C640004333B6223E03B68DB6808333B621EE0ED
:100C74003B68DB680C333B6219E03B689B68002BE4
:100C840002D104233B6212E03B689B68012B05D12F
:100C940008233B627B68FA691A6108E008233B6217
:100CA4007B68FA695A6102E000233B6200BFBB69BA
:100CB400FF2B01D87B6801E07B680433FB60BB69D0
:100CC400FF2B02D87B6A9B0002E07B6A083B9B00F7
:100CD4003B61FB681A680F213B6901FA03F3DB43AC
:100CE4001A40396A3B6901FA03F31A43FB681A6034
:100CF4003B685B6803F08053002B00F0A2805D4BDF
:100D04009B695C4A43F0010393615A4B9B6903F06E
:100D14000103BB60BB68584A7B6A9B08023352F8E4
:100D240023307B617B6A03F003039B000F2202FAEA
:100D340003F3DB437A6913407B617B684F4A934238
:100D44001FD07B684E4A934219D07B684D4A934228
:100D540013D07B684C4A93420DD07B684B4A934234
:100D640007D07B684A4A934201D105230AE006234F
:100D740008E0042306E0032304E0022302E0012345
:100D840000E000237A6A02F00302920093407A6939
:100D940013437B6138497B6A9B0802337A6941F8C3
:100DA40023203B685B6803F48033002B06D0394B67
:100DB4001A683849BB6913430B6006E0354B1A685F
:100DC400BB69DB43334913400B603B685B6803F446
:100DD4000033002B06D02F4B5A682E49BB691343AE
:100DE4004B6006E02B4B5A68BB69DB43294913402F
:100DF4004B603B685B6803F48013002B06D0254BE3
:100E04009A682449BB6913438B6006E0214B9A68B6
:100E1400BB69DB431F4913408B603B685B6803F489
:100E24000013002B06D01B4BDA681A49BB69134325
:100E3400CB6006E0174BDA68BB69DB431549134006
:100E4400CB607B6A01337B627B6A0F2B7FF6C8AE73
:100E540000BF2C37BD4680BC704700BF0000211086
:100E640000001110000012100000311000003210B8
:100E74000000221000100240000001400008014060
:100E8400000C014000100140001401400018014012
:100E9400001C01400004014080B586B000AF7860BA
:100EA40000233B617B681B6803F00103002B00F007
:100EB4008780924B5B6803F00C03042B0CD08F4BA0
:100EC4005B6803F00C03082B12D18C4B5B6803F4B2
:100ED4008033B3F5803F0BD1884B1B6803F4003398
:100EE400002B6CD07B685B68002B68D101232DE25A
:100EF4007B685B68B3F5803F06D1804B1B687F4AF3
:100F040043F4803313602EE07B685B68002B0CD1C4
:100F14007A4B1B68794A23F480331360774B1B6840
:100F2400764A23F4802313601DE07B685B68B3F585
:100F3400A02F0CD1714B1B68704A43F480231360BB
:100F44006E4B1B686D4A43F4803313600BE06B4BAC
:100F54001B686A4A23F480331360684B1B68674A32
:100F640023F4802313607B685B68002B13D0FFF7A6
:100F7400AFF9386108E0FFF7ABF902463B69D31AD1
:100F8400642B01D90323E1E15C4B1B6803F40033B8
:100F9400002BF0D014E0FFF79BF9386108E0FFF76D
:100FA40097F902463B69D31A642B01D90323CDE197
:100FB400524B1B6803F40033002BF0D100E000BF58
:100FC4007B681B6803F00203002B63D04B4B5B6808
:100FD40003F00C03002B0BD0484B5B6803F00C03AD
:100FE400082B1CD1454B5B6803F48033002B16D1CE
:100FF400424B1B6803F00203002B05D07B681B697E
:10100400012B01D00123A1E13C4B1B6823F0F80222
:101014007B685B69DB00394913430B603AE07B680A
:101024001B69002B20D0364B01221A60FFF750F9C0
:10103400386108E0FFF74CF902463B69D31A022BEA
:1010440001D9032382E12D4B1B6803F00203002B1B
:10105400F0D02A4B1B6823F0F8027B685B69DB0045
:10106400264913430B6015E0254B00221A60FFF755
:101074002FF9386108E0FFF72BF902463B69D31AD0
:10108400022B01D9032361E11C4B1B6803F002030B
:10109400002BF0D17B681B6803F00803002B39D0C8
:1010A4007B689B69002B19D0164B01221A60FFF74D
:1010B4000FF9386108E0FFF70BF902463B69D31AD0
:1010C400022B01D9032341E10C4B5B6A03F00203B9
:1010D400002BF0D0012000F0B1FA1BE0094B0022F4
:1010E4001A60FFF7F5F838610EE0FFF7F1F80246F1
:1010F4003B69D31A022B07D9032327E100100240CE
:101104000000424280044242924B5B6A03F00203B5
:10111400002BEAD17B681B6803F00403002B00F06A
:10112400A6800023FB758B4BDB6903F08053002BF7
:101134000DD1884BDB69874A43F08053D361854BDB
:10114400DB6903F08053FB60FB680123FB75824B72
:101154001B6803F48073002B18D17F4B1B687E4AF5
:1011640043F480731360FFF7B3F8386108E0FFF7C6
:10117400AFF802463B69D31A642B01D90323E5E097
:10118400754B1B6803F48073002BF0D07B68DB681D
:10119400012B06D16F4B1B6A6E4A43F001031362A5
:1011A4002DE07B68DB68002B0CD16A4B1B6A694A13
:1011B40023F001031362674B1B6A664A23F004039E
:1011C40013621CE07B68DB68052B0CD1614B1B6A46
:1011D400604A43F0040313625E4B1B6A5D4A43F0AA
:1011E400010313620BE05B4B1B6A5A4A23F00103B1
:1011F4001362584B1B6A574A23F0040313627B683B
:10120400DB68002B15D0FFF763F838610AE0FFF7BD
:101214005FF802463B69D31A41F28832934201D9FE
:10122400032393E04B4B1B6A03F00203002BEED025
:1012340014E0FFF74DF838610AE0FFF749F8024679
:101244003B69D31A41F28832934201D903237DE0EA
:10125400404B1B6A03F00203002BEED1FB7D012BF4
:1012640005D13C4BDB693B4A23F08053D3617B6857
:10127400DB69002B69D0374B5B6803F00C03082B48
:1012840061D07B68DB69022B46D1344B00221A60A3
:10129400FFF71EF8386108E0FFF71AF802463B69C9
:1012A400D31A022B01D9032350E02A4B1B6803F005
:1012B4000073002BF0D17B681B6AB3F5803F08D123
:1012C400244B5B6823F400327B689B6821491343F9
:1012D4004B60204B5B6823F474127B68196A7B684B
:1012E4005B6A0B431B4913434B601C4B01221A607E
:1012F400FEF7EEFF386108E0FEF7EAFF02463B69BD
:10130400D31A022B01D9032320E0124B1B6803F0EC
:101314000073002BF0D018E0104B00221A60FEF787
:10132400D7FF386108E0FEF7D3FF02463B69D31AC2
:10133400022B01D9032309E0064B1B6803F0007359
:10134400002BF0D101E0012300E0002318461837F8
:10135400BD4680BD00100240007000406000424263
:1013640080B584B000AF786039600023FB607E4BA9
:101374001B6803F007033A689A4210D97A4B1B683A
:1013840023F0070278493B6813430B60764B1B68D4
:1013940003F007033A689A4201D00123E0E07B6836
:1013A4001B6803F00203002B20D07B681B6803F04A
:1013B4000403002B05D06D4B5B686C4A43F4E06377
:1013C40053607B681B6803F00803002B05D0674B50
:1013D4005B68664A43F460535360644B5B6823F074
:1013E400F0027B689B68614913434B607B681B6810
:1013F40003F00103002B6AD07B685B68012B07D1E3
:101404005A4B1B6803F40033002B15D10123A7E0CA
:101414007B685B68022B07D1544B1B6803F0007395
:10142400002B09D101239BE0504B1B6803F00203FE
:10143400002B01D1012393E04C4B5B6823F00302A2
:101444007B685B68494913434B60FEF741FFF860D2
:101454007B685B68012B12D10AE0FEF739FF024674
:10146400FB68D31A41F28832934201D9032377E00F
:101474003E4B5B6803F00C03042BEED127E07B6842
:101484005B68022B1DD10AE0FEF722FF0246FB68CF
:10149400D31A41F28832934201D9032360E0334BDB
:1014A4005B6803F00C03082BEED110E0FEF710FF8D
:1014B4000246FB68D31A41F28832934201D90323CE
:1014C4004EE02A4B5B6803F00C03002BEED1264B55
:1014D4001B6803F007033A689A4210D2224B1B6838
:1014E40023F0070220493B6813430B601E4B1B6823
:1014F40003F007033A689A4201D0012330E07B6885
:101504001B6803F00403002B08D0184B5B6823F41A
:10151400E0627B68DB68154913434B607B681B689A
:1015240003F00803002B09D0104B5B6823F46052CE
:101534007B681B69DB000D4913434B6000F01CF80A
:1015440001460A4B5B681B0903F00F03084AD35C8E
:1015540021FA03F3074A13600020FEF777FE002305
:1015640018461037BD4680BD0020024000100240DE
:10157400EC2A00089809002090B48AB000AF2A4BE6
:101584003C1D0FCB84E80F00284B1B883B800023B5
:10159400FB610023BB6100237B6200237B6100238A
:1015A4003B62234B5B68FB61FB6903F00C03042B78
:1015B40002D0082B03D02DE01E4B3B622DE0FB69CB
:1015C4009B0C03F00F0307F12802134413F8243C87
:1015D4007B61FB6903F48033002B13D0144B5B68ED
:1015E4005B0C03F0010307F12802134413F8283CB1
:1015F400BB617B690F4A02FB03F2BB69B2FBF3F3E5
:101604007B6204E07B690C4A02FB03F37B627B6A26
:101614003B6202E0074B3B6200BF3B6A1846283737
:10162400BD4690BC704700BFD82A0008E82A0008CD
:101634000010024000127A0000093D0080B485B019
:1016440000AF78600A4B1B680A4AA2FB03235B0ABB
:101654007A6802FB03F3FB6000BFFB685A1EFA6062
:10166400002BF9D100BF1437BD4680BC704700BFC2
:1016740098090020D34D621080B582B000AF786025
:101684007B68002B01D101231DE07B6893F83D307A
:10169400DBB2002B06D17B68002283F83C207868FB
:1016A40001F03AF97B68022283F83D207B681A68CE
:1016B4007B6804331946104600F0BCFB7B680122AA
:1016C40083F83D20002318460837BD4680BD80B509
:1016D40082B000AF78607B68002B01D101231DE04C
:1016E4007B6893F83D30DBB2002B06D17B68002287
:1016F40083F83C20786800F015F87B68022283F8B0
:101704003D207B681A687B6804331946104600F054
:1017140091FB7B68012283F83D200023184608379B
:10172400BD4680BD80B483B000AF786000BF0C3785
:10173400BD4680BC7047000080B584B000AFF8603F
:10174400B9607A607B80FB6893F83D30DBB2022B92
:1017540001D10223C6E0FB6893F83D30DBB2012BD4
:101764000BD17B68002B04D17B88002B01D0012393
:10177400B8E0FB68022283F83D20BB680C2B00F222
:10178400898001A252F823F0C117000899180008B3
:101794009918000899180008F71700089918000804
:1017A40099180008991800082D18000899180008BD
:1017B400991800089918000863180008FB685B6A08
:1017C4004A4A9A62FB685B6A494A1A63FB68586A28
:1017D4007968FB681B6834331A467B88FEF724FF5C
:1017E400FB681B68DA68FB681B6842F40072DA6005
:1017F40051E0FB689B6A3D4A9A62FB689B6A3C4ADB
:101804001A63FB68986A7968FB681B6838331A4660
:101814007B88FEF709FFFB681B68DA68FB681B68B6
:1018240042F48062DA6036E0FB68DB6A2F4A9A622F
:10183400FB68DB6A2E4A1A63FB68D86A7968FB681E
:101844001B683C331A467B88FEF7EEFEFB681B6878
:10185400DA68FB681B6842F40062DA601BE0FB682C
:101864001B6B224A9A62FB681B6B214A1A63FB6852
:10187400186B7968FB681B6840331A467B88FEF74F
:10188400D3FEFB681B68DA68FB681B6842F480526D
:10189400DA6000E000BFFB681B680122B9681846E3
:1018A40000F0AFFDFB681B68124A934204D0FB684A
:1018B4001B68114A934201D1012300E00023002B4D
:1018C40007D0FB681B685A6CFB681B6842F4004233
:1018D4005A64FB681B681A68FB681B6842F00102C3
:1018E4001A60002318461037BD4680BDC71D000886
:1018F400A31D0008002C01400034014080B582B0D3
:1019040000AF786039603B680C2B41D801A252F8D3
:1019140023F000BF4D190008951900089519000817
:10192400951900085F190008951900089519000811
:1019340095190008711900089519000895190008EF
:1019440095190008831900087B681B68DA687B68AE
:101954001B6822F40072DA601BE07B681B68DA689B
:101964007B681B6822F48062DA6012E07B681B6883
:10197400DA687B681B6822F40062DA6009E07B683D
:101984001B68DA687B681B6822F48052DA6000E026
:1019940000BF7B681B6800223968184600F031FDDF
:1019A4007B681B68224A934204D07B681B68214AE7
:1019B400934201D1012300E00023002B17D07B6860
:1019C4001B681A6A41F211131340002B0FD17B6874
:1019D4001B681A6A40F244431340002B07D17B680A
:1019E4001B685A6C7B681B6822F400425A647B684B
:1019F4001B681A6A41F211131340002B0FD17B6844
:101A04001B681A6A40F244431340002B07D17B68D9
:101A14001B681A687B681B6822F001021A607B68E5
:101A2400012283F83D20002318460837BD4680BDB7
:101A3400002C01400034014080B584B000AFF86050
:101A4400B9607A60FB6893F83C30012B01D1022322
:101A5400B4E0FB68012283F83C20FB68022283F88F
:101A64003D207B680C2B00F29F8001A252F823F0EA
:101A7400A91A0008AD1B0008AD1B0008AD1B000827
:101A8400E91A0008AD1B0008AD1B0008AD1B0008D7
:101A94002B1B0008AD1B0008AD1B0008AD1B000884
:101AA4006B1B0008FB681B68B968184600F040FA15
:101AB400FB681B689A69FB681B6842F008029A611C
:101AC400FB681B689A69FB681B6822F004029A6130
:101AD400FB681B689969BB681A69FB681B680A4341
:101AE4009A6162E0FB681B68B968184600F096FAD0
:101AF400FB681B689A69FB681B6842F400629A6180
:101B0400FB681B689A69FB681B6822F480629A610F
:101B1400FB681B689969BB681B691A02FB681B6830
:101B24000A439A6141E0FB681B68B968184600F0F3
:101B3400EFFAFB681B68DA69FB681B6842F008026D
:101B4400DA61FB681B68DA69FB681B6822F004022F
:101B5400DA61FB681B68D969BB681A69FB681B6892
:101B64000A43DA6121E0FB681B68B968184600F093
:101B740049FBFB681B68DA69FB681B6842F4006276
:101B8400DA61FB681B68DA69FB681B6822F480620F
:101B9400DA61FB681B68D969BB681B691A02FB68B8
:101BA4001B680A43DA6100E000BFFB68012283F886
:101BB4003D20FB68002283F83C20002318461037A0
:101BC400BD4680BD80B584B000AF78603960002325
:101BD400FB607B6893F83C30012B01D10223C8E001
:101BE4007B68012283F83C207B68022283F83D2035
:101BF4007B681B689B68FB60FB6823F07703FB60D2
:101C0400FB6823F47F43FB607B681B68FA689A6077
:101C14003B681B68402B77D0402B0ED8102B00F06C
:101C24008A80102B02D8002B7ED099E0202B00F064
:101C34008980302B00F08D8092E0702B16D0702BB1
:101C440004D8502B40D0602B4ED089E0B3F5805F90
:101C540003D0B3F5005F24D082E07B681B689A68E8
:101C64007B681B6822F007029A6079E07B68186839
:101C74003B6899683B685A683B68DB6800F0A0FBE6
:101C84007B681B689B68FB60FB6823F07703FB6041
:101C9400FB6843F07703FB607B681B68FA689A6013
:101CA4005EE07B6818683B6899683B685A683B68E3
:101CB400DB6800F085FB7B681B689A687B681B689F
:101CC40042F480429A604BE07B6818683B6859682C
:101CD4003B68DB681A4600F0EFFA7B681B6850210A
:101CE400184600F04EFB3BE07B6818683B68596877
:101CF4003B68DB681A4600F011FB7B681B686021B7
:101D0400184600F03EFB2BE07B6818683B68596876
:101D14003B68DB681A4600F0CFFA7B681B684021F9
:101D2400184600F02EFB1BE07B681B680021184658
:101D340000F027FB14E07B681B681021184600F0B4
:101D440020FB0DE07B681B682021184600F019FB7E
:101D540006E07B681B683021184600F012FB00BFC8
:101D64007B68012283F83D207B68002283F83C20B5
:101D7400002318461037BD4680BD80B483B000AF41
:101D8400786000BF0C37BD4680BC704780B483B018
:101D940000AF786000BF0C37BD4680BC704780B58B
:101DA40084B000AF78607B685B6AFB60FB680122EB
:101DB40083F83D20F868FFF7E9FF00BF1037BD4600
:101DC40080BD80B584B000AF78607B685B6AFB60DF
:101DD400FB68012283F83D20FB685B6A7A689A42BB
:101DE40003D1FB6801221A7719E0FB689B6A7A68C1
:101DF4009A4203D1FB6802221A7710E0FB68DB6A7F
:101E04007A689A4203D1FB6804221A7707E0FB68D8
:101E14001B6B7A689A4202D1FB6808221A77F86829
:101E2400FFF7ABFFFB6800221A7700BF1037BD46EF
:101E340080BD000080B485B000AF786039600023B5
:101E4400FB607B681B68FB607B68344A934213D059
:101E54007B68334A93420FD07B68B3F1804F0BD039
:101E64007B68304A934207D07B682F4A934203D061
:101E74007B682E4A934208D1FB6823F07003FB6011
:101E84003B685B68FA681343FB607B68234A9342B0
:101E940013D07B68224A93420FD07B68B3F1804F02
:101EA4000BD07B681F4A934207D07B681E4A93423B
:101EB40003D07B681D4A934208D1FB6823F4407326
:101EC400FB603B68DB68FA681343FB60FB6823F044
:101ED4008003FB603B685B69FA681343FB607B68C3
:101EE400FA681A603B689A687B68DA623B681A6829
:101EF4007B689A627B68094A934203D07B68084AEC
:101F0400934203D13B681A697B681A637B68012298
:101F14005A6100BF1437BD4680BC7047002C014095
:101F2400003401400004004000080040000C004060
:101F340080B487B000AF786039600023FB60002371
:101F44007B6100233B617B681B6A23F001027B6891
:101F54001A627B681B6A7B617B685B683B617B6898
:101F64009B69FB60FB6823F07003FB60FB6823F054
:101F74000303FB603B681B68FA681343FB607B69DF
:101F840023F002037B613B689B687A6913437B619E
:101F94007B68204A934203D07B681F4A93420CD14A
:101FA4007B6923F008037B613B68DB687A69134330
:101FB4007B617B6923F004037B617B68154A934250
:101FC40003D07B68144A934211D13B6923F4807394
:101FD4003B613B6923F400733B613B685B693A698D
:101FE40013433B613B689B693A6913433B617B68DC
:101FF4003A695A607B68FA689A613B685A687B68F8
:102004005A637B687A691A6200BF1C37BD4680BC7C
:10201400704700BF002C01400034014080B487B0F9
:1020240000AF786039600023FB6000237B610023EC
:102034003B617B681B6A23F010027B681A627B6831
:102044001B6A7B617B685B683B617B689B69FB60A7
:10205400FB6823F4E043FB60FB6823F44073FB60FC
:102064003B681B681B02FA681343FB607B6923F01F
:1020740020037B613B689B681B017A6913437B6186
:102084007B68214A934203D07B68204A93420DD156
:102094007B6923F080037B613B68DB681B017A6901
:1020A40013437B617B6923F040037B617B68164AA1
:1020B400934203D07B68154A934213D13B6923F4BE
:1020C40080633B613B6923F400633B613B685B696C
:1020D4009B003A6913433B613B689B699B003A69E7
:1020E40013433B617B683A695A607B68FA689A617A
:1020F4003B685A687B689A637B687A691A6200BF96
:102104001C37BD4680BC7047002C014000340140A0
:1021140080B487B000AF786039600023FB6000238F
:102124007B6100233B617B681B6A23F480727B68BC
:102134001A627B681B6A7B617B685B683B617B68B6
:10214400DB69FB60FB6823F07003FB60FB6823F032
:102154000303FB603B681B68FA681343FB607B69FD
:1021640023F400737B613B689B681B027A69134309
:102174007B617B68214A934203D07B68204A934267
:102184000DD17B6923F400637B613B68DB681B0230
:102194007A6913437B617B6923F480637B617B6889
:1021A400164A934203D07B68154A934213D13B6984
:1021B40023F480533B613B6923F400533B613B6848
:1021C4005B691B013A6913433B613B689B691B01D3
:1021D4003A6913433B617B683A695A607B68FA68E1
:1021E400DA613B685A687B68DA637B687A691A62E9
:1021F40000BF1C37BD4680BC704700BF002C0140A7
:102204000034014080B487B000AF786039600023A7
:102214003B610023FB6000237B617B681B6A23F422
:1022240080527B681A627B681B6AFB607B685B6810
:102234007B617B68DB693B613B6923F4E0433B6181
:102244003B6923F440733B613B681B681B023A699A
:1022540013433B61FB6823F40053FB603B689B68BA
:102264001B03FA681343FB607B68114A934203D053
:102274007B68104A934209D17B6923F480437B61D4
:102284003B685B699B017A6913437B617B687A696C
:102294005A607B683A69DA613B685A687B681A64F9
:1022A4007B68FA681A6200BF1C37BD4680BC704761
:1022B400002C01400034014080B487B000AFF860C6
:1022C400B9607A6000237B6100233B61FB681B6A71
:1022D4003B61FB681B6A23F00102FB681A62FB681E
:1022E4009B697B617B6923F0F0037B617B681B0145
:1022F4007A6913437B613B6923F00A033B613A69C2
:10230400BB6813433B61FB687A699A61FB683A696D
:102314001A6200BF1C37BD4680BC704780B487B0CA
:1023240000AFF860B9607A6000237B6100233B61F1
:10233400FB681B6A23F01002FB681A62FB689B6946
:102344007B61FB681B6A3B617B6923F470437B619F
:102354007B681B037A6913437B613B6923F0A00309
:102364003B61BB681B013A6913433B61FB687A69B3
:102374009A61FB683A691A6200BF1C37BD4680BC8B
:10238400704780B485B000AF78600B467B80002333
:10239400FB607B689B68FB60FB6823F07003FB6059
:1023A4007B8843F007039BB21A46FB681343FB6028
:1023B4007B68FA689A6000BF1437BD4680BC7047DA
:1023C40080B487B000AFF860B9607A603B600023E6
:1023D4007B61FB689B687B617B6923F47F437B6142
:1023E4003B681A027B681A43BB6813437A69134338
:1023F4007B61FB687A699A6000BF1C37BD4680BC6C
:10240400704780B487B000AFF860B9607A60002389
:102414007B610122BB6802FA03F37B61FB681A6AE1
:102424007B69DB431A40FB681A62FB681A6A7968A5
:10243400BB6801FA03F31A43FB681A6200BF1C3736
:10244400BD4680BC704780B483B000AF786039600B
:102454007B6893F83C30012B01D1022332E07B6886
:10246400012283F83C207B68022283F83D207B68AC
:102474001B685A687B681B6822F070025A607B688C
:102484001B6859683B681A687B681B680A435A6072
:102494007B681B689A687B681B6822F080029A60DC
:1024A4007B681B6899683B685A687B681B680A43A9
:1024B4009A607B68012283F83D207B68002283F8C0
:1024C4003C20002318460C37BD4680BC70470000F2
:1024D40080B582B000AF0C4B5B690B4A43F001033B
:1024E4005361094B5B6903F001037B607B68002245
:1024F40000211020FDF7EBFF1020FEF704F800BFC9
:102504000837BD4680BD00BF0010024080B483B0D0
:1025140000AF0E4B9B690D4A43F0200393610B4BB4
:102524009B6903F020037B607B68084B9B69074A27
:1025340043F004039361054B9B6903F004033B6080
:102544003B6800BF0C37BD4680BC7047001002409A
:1025540080B485B000AF78600B467B800023FB60BD
:1025640024E0FB68C3F11703012202FA03F31A46BD
:102574007B681340002B0BD07A8813465B0013440E
:10258400DB001A46FB6813440C4A3921D1540AE093
:102594007A8813465B001344DB001A46FB68134435
:1025A400064A1C21D154FB680133FB60FB68172BDE
:1025B400D7DD00BF1437BD4680BC7047080000203B
:1025C40080B582B000AFFDF72BFE00F049F8FFF7AD
:1025D4009DFFFFF77DFF00F029F900211D48FFF75B
:1025E4008DF94FF419631C4A00211A48FFF7A4F827
:1025F40000BF1A4B1B685B68002BFAD14FF47A704A
:10260400FDF770FE4FF419620021134800F04EFAF2
:1026140000237B6009E07B689BB219466FF00040A1
:10262400FFF796FF7B6801337B607B68632BF2DDE9
:102634004FF41963084A00210648FFF77DF800BFEC
:10264400064B1B685B68002BFAD16420FDF74AFE39
:10265400DEE700BFBC09002008000020FC090020C0
:1026640080B590B000AF07F1180328220021184666
:1026740000F01CFA3B1D00221A605A609A60DA606E
:102684001A610123BB614FF48033FB6100233B6279
:102694000123BB6202237B634FF48033BB634FF49B
:1026A400E013FB6307F118031846FEF7F5FB034636
:1026B400002B01D000F019F80F237B600223BB60CC
:1026C4000023FB604FF480633B6100237B613B1D6F
:1026D40002211846FEF744FE0346002B01D000F009
:1026E40004F800BF4037BD4680BD80B400AF00BFD2
:1026F400BD4680BC7047000080B485B000AF154B68
:102704009B69144A43F001039361124B9B6903F0E4
:102714000103BB60BB680F4BDB690E4A43F0805377
:10272400D3610C4BDB6903F080537B607B680A4BFD
:102734005B68FB60FB6823F0E063FB60FB6843F0CD
:102744000073FB60044AFB68536000BF1437BD4646
:1027540080BC7047001002400000014080B400AF0C
:1027640000BFBD4680BC704780B400AFFEE780B4B4
:1027740000AFFEE780B400AFFEE780B400AFFEE731
:1027840080B400AF00BFBD4680BC704780B400AFCA
:1027940000BFBD4680BC704780B400AF00BFBD46DB
:1027A40080BC704780B500AFFDF780FD00BF80BDE1
:1027B40080B500AF0248FDF797FF00BF80BD00BFA2
:1027C400FC09002080B400AF154B1B68144A43F089
:1027D40001031360124B5A681149124B13404B60AA
:1027E4000F4B1B680E4A23F0847323F48033136069
:1027F4000B4B1B680A4A23F480231360084B5B6865
:10280400074A23F4FE035360054B4FF41F029A60FA
:10281400054B4FF000629A6000BFBD4680BC704714
:10282400001002400000FFF800ED00E080B58EB01B
:1028340000AF07F1280300221A605A609A60DA6038
:1028440007F1200300221A605A603B1D00221A601F
:102854005A609A60DA601A615A619A612C4B2D4A67
:102864001A602B4B00225A60294B00229A60284B95
:102874005922DA60264B00221A61254B00229A6104
:102884002348FEF7F9FE0346002B01D0FFF72DFF86
:102894004FF48053BB6207F1280319461C48FFF725
:1028A40091F90346002B01D0FFF71FFF1848FEF7EC
:1028B4000EFF0346002B01D0FFF717FF00233B62F6
:1028C40000237B6207F1200319461148FFF7BBFD83
:1028D4000346002B01D0FFF708FF60237B60002331
:1028E400BB600023FB6000237B613B1D0022194673
:1028F4000748FFF7A1F80346002B01D0FFF7F5FEC8
:10290400034800F057F800BF3837BD4680BD00BF0C
:10291400BC0900200004004080B584B000AF78609A
:102924007B681B681F4A934238D11F4BDB691E4AE0
:1029340043F00203D3611C4BDB6903F00203FB6029
:10294400FB681A4B1A4A1A60184B10225A60174B2C
:1029540000229A60154B8022DA60144B4FF4807287
:102964001A61124B00225A61104B00229A610F4BDC
:102974000022DA610D48FDF7E1FD0346002B01D08A
:10298400FFF7B3FE7B68094A5A62084A7B685362C0
:102994007B68064A9A63054A7B68536200BF103716
:1029A400BD4680BD0004004000100240FC09002028
:1029B4006C00024080B588B000AF786007F1100366
:1029C40000221A605A609A60DA607B681B680F4ABA
:1029D400934217D10E4B9B690D4A43F00403936154
:1029E4000B4B9B6903F00403FB60FB6840233B61D2
:1029F40002237B610223FB6107F11003194605489A
:102A0400FEF7DCF800BF2037BD4680BD000400405F
:102A14000010024000080140002103E00B4B5B580A
:102A2400435004310A480B4B42189A42F6D30A4ADF
:102A340002E0002342F8043B084B9A42F9D3FFF723
:102A4400C1FE00F00FF8FFF7BBFD7047042B000830
:102A5400000000209C0900209C090020400A00205E
:102A6400FEE7000070B500250C4E0D4CA41BA4100D
:102A7400A54209D100F022F800250A4E0A4CA41BF5
:102A8400A410A54205D170BD56F8253098470135EC
:102A9400EEE756F8253098470135F2E7FC2A00089E
:102AA400FC2A0008FC2A0008002B00080346024404
:102AB400934200D1704703F8011BF9E7F8B500BF52
:102AC400F8BC08BC9E467047F8B500BFF8BC08BC0B
:042AD4009E46704763
:102AD80002030405060708090A0B0C0D0E0F101057
:102AE80001020000000000000000000001020304D1
:042AF80006070809BC
:042AFC0009020008C3
:042B0000E5010008E3
:102B040010000000010000003939393939393939E8
:102B14001C1C1C1C1C1C1C1C1C1C1C1C1C1C1C1CF1
:102B24001C1C1C1C1C1C1C1C3939393939393939F9
:102B34001C1C1C1C1C1C1C1C1C1C1C1C1C1C1C1CD1
:102B44001C1C1C1C1C1C1C1C3939393939393939D9
:102B540039393939393939393939393939393939E1
:102B64003939393939393939000000000000000099
:102B74000000000000000000000000000000000051
:102B84000000000000000000000000000000000041
:102B94000000000000000000000000000000000031
:102BA4000000000000000000000000000000000021
:0C349400000000000000000000A24A043C
:0400000508002A1DA8
:00000001FF
